:0400000002001132B7
:03000B000200955B
:09006A0075080075090102000E81
:03000E000200737A
:20007300758C01758A01758901D2A9D2AFD28C74F925085003750900E50870F37509018058
:20009300EE22C0E0C0F0C007C0D075D000758C01758A01AF088FF005F07401800225E0D553
:1900B300F0FBF4F5907401B50904050880021508D0D0D007D0F0D0E032D4
:06004000E478FFF6D8FD94
:20001E007900E94400601B7A009000D0780175A000E493F2A308B8000205A0D9F4DAF275B8
:02003E00A0FF21
:200046007800E84400600A790175A000E4F309D8FC7800E84400600C7900900001E4F0A3B8
:04006600D8FCD9FAEF
:0D0011007581091200CCE582600302000E2B
:0400CC007582002217
:00000001FF
